:100000000C94BC040C94E4040C94E4040C94E404F8
:100010000C94E4040C94E4040C94E4040C94E404C0
:100020000C94E4040C94E4040C94B60E0C94250F88
:100030000C94E4040C94E4040C94E4040C94E404A0
:100040000C94E4040C94E4040C94E4040C94E40490
:100050000C94E4040C94E4040C94E4040C94571100
:100060000C94E4040C94E4040C94E4040C94E40470
:100070000C94E4040C94E4040C94E4040C94E40460
:100080000C94E4040C94E4040C94E4040C94E40450
:100090000C94E4040C94E4040C94E4040C94E40440
:1000A0000C94E4040C94E4040C94E40400000000B8
:1000B000003E5B4F5B3E3E6B4F6B3E1C3E7C3E1CEE
:1000C000183C7E3C181C577D571C1C5E7F5E1C0034
:1000D000183C1800FFE7C3E7FF0018241800FFE7EB
:1000E000DBE7FF30483A060E2629792926407F05AE
:1000F0000507407F05253F5A3CE73C5A7F3E1C1CC4
:1001000008081C1C3E7F14227F22145F5F005F5F83
:1001100006097F017F006689956A6060606060946F
:10012000A2FFA29408047E040810207E2010080874
:100130002A1C08081C2A08081E101010100C1E0C7F
:100140001E0C30383E3830060E3E0E060000000011
:100150000000005F00000007000700147F147F14F8
:10016000242A7F2A1223130864623649562050003D
:1001700008070300001C2241000041221C002A1C29
:100180007F1C2A08083E0808008070300008080814
:100190000808000060600020100804023E51494534
:1001A0003E00427F400072494949462141494D3352
:1001B0001814127F1027454545393C4A49493141B9
:1001C000211109073649494936464949291E000087
:1001D00014000000403400000008142241141414DC
:1001E0001414004122140802015909063E415D59C8
:1001F0004E7C1211127C7F494949363E41414122D1
:100200007F4141413E7F494949417F090909013EFA
:10021000414151737F0808087F00417F4100204021
:10022000413F017F081422417F404040407F021C33
:10023000027F7F0408107F3E4141413E7F0909094A
:10024000063E4151215E7F09192946264949493216
:1002500003017F01033F4040403F1F2040201F3FDC
:100260004038403F63140814630304780403615961
:10027000494D43007F4141410204081020004141A3
:10028000417F04020102044040404040000307084F
:100290000020545478407F2844443838444444284B
:1002A000384444287F385454541800087E090218F2
:1002B000A4A49C787F0804047800447D400020407A
:1002C000403D007F1028440000417F40007C0478BE
:1002D00004787C080404783844444438FC18242406
:1002E0001818242418FC7C08040408485454542486
:1002F00004043F44243C4040207C1C2040201C3C03
:100300004030403C44281028444C9090907C4464F9
:10031000544C44000836410000007700000041368C
:10032000080002010204023C2623263C1EA1A16112
:10033000123A4040207A3854545559215555794144
:100340002154547841215554784020545579400C1B
:100350001E527212395555555939545454593955FC
:100360005454580000457C410002457D420001453F
:100370007C40F0292429F0F0282528F07C545545AC
:10038000002054547C547C0A097F4932494949323F
:100390003248484832324A4848303A4141217A3A54
:1003A00042402078009DA0A07D39444444393D401E
:1003B00040403D3C24FF2424487E4943662B2FFCCB
:1003C0002F2BFF0929F620C0887E09032054547979
:1003D000410000447D413048484A32384040227A4A
:1003E000007A0A0A727D0D19317D2629292F2826C7
:1003F0002929292630484D402038080808080808CF
:100400000808382F10C8ACBA2F102834FA00007B27
:10041000000008142A142222142A1408950022002D
:1004200095AA005500AAAA55AA55AA000000FF00E7
:10043000101010FF00141414FF001010FF00FF1024
:1004400010F010F0141414FC001414F700FF000056
:10045000FF00FF1414F404FC141417101F10101FD5
:10046000101F1414141F00101010F0000000001FC3
:10047000101010101F10101010F010000000FF10CE
:100480001010101010101010FF10000000FF1400CA
:1004900000FF00FF00001F10170000FC04F41414FC
:1004A0001710171414F404F40000FF00F7141414C8
:1004B00014141414F700F7141414171410101F1048
:1004C0001F141414F4141010F010F000001F101F6B
:1004D0000000001F14000000FC140000F010F010D9
:1004E00010FF10FF141414FF141010101F00000050
:1004F00000F010FFFFFFFFFFF0F0F0F0F0FFFFFF54
:100500000000000000FFFF0F0F0F0F0F38444438AA
:10051000447C2A2A3E147E02020606027E027E02E5
:1005200063554941633844443C04407E201E200604
:10053000027E020299A5E7A5991C2A492A1C4C7241
:1005400001724C304A4D4D303048784830BC625AC8
:10055000463D3E494949007E0101017E2A2A2A2A58
:100560002A44445F444440514A444040444A514034
:100570000000FF0103E080FF000008086B6B0836F5
:1005800012362436060F090F060000181800000066
:100590001010003040FF0101001F01011E00191D55
:1005A0001712003C3C3C3C0000000000F0F89C8E20
:1005B0008783878E9CF8F00000FEFF03030303038C
:1005C000070EFCF80000FEFF0303030303070EFC05
:1005D000F80000FFFF00000000000000FFFF000027
:1005E000FEFF8383838383C7EE7C380000F8FC0E14
:1005F00007030303070EFCF800003F7FE0C0808084
:10060000C0E07F3FFFFF01010101010101FFFF0089
:1006100000FFFF0C0C0C0C1C3E77E3C100007FFFB9
:10062000C0C0C0C0C0E0703F1F00001F3F70E0C0EE
:10063000C0C0E0703F1F00007FFFC1C1C1C1C1E366
:10064000773E1C00001F3F70E0C0C0C0E0703F1F3D
:10065000000000000001FFFF01000000D5F08D1434
:10066000A1C881CFD9F1AF2000080B00020202001F
:100670000009040000010202000005240010010529
:100680002401010104240206052406000107058156
:100690000310004009040100020A000000070502DF
:1006A0000240000007058302400000040309041211
:1006B000010002EF020140412336800001010203E4
:1006C0000141726475696E6F204C4C430041726445
:1006D00075626F790000000000000000000000005B
:1006E000000000000000000000000000000000000A
:1006F00000000000000000000000000000000000FA
:100700000000000000000000000000000000008069
:10071000808080F8F8808080800000000000000069
:1007200000000000000000000000000000000000C9
:1007300000000000000000000081C1C1C17F7FC136
:10074000C1C18100000000000000000000000000A6
:100750000000000000000000000000000000101871
:100760009CFE0F070301000000000103070FFE9C21
:100770001810000000000000000000000000000051
:1007800000000000E0F0381C0E0707FF00000080AA
:10079000C0E0E0C080000000FF07070E1C38F0E05A
:1007A0000000000000000000000000000000007FCA
:1007B00040404040407F4040407F7F7F7F7F7F4080
:1007C00040407F40404040407F000000000000006B
:1007D0000000000000000000000000000000000019
:1007E0000000000000000000000000000000000009
:1007F00000000000000000000000000000000000F9
:1008000000000000000000000000000000000000E8
:1008100000000000000000000000000000000000D8
:1008200000000000000000000000000000000000C8
:1008300000000000000000000000000000000000B8
:1008400000000000000000000000000000000000A8
:100850000000000000000000000000000000000098
:100860000000000000000000000000000000000088
:100870000000000000000000000000000000000078
:1008800000000000000000000000000000FFFF006A
:100890000000000000000000000000000000000058
:1008A00000000000000000000080808080808080C8
:1008B00080808080808080FFFF808080808080803A
:1008C0008080808080808080000000000000000028
:1008D000000000010101010101010101010101010B
:1008E00001FFFF01010101010101010101010101FC
:1008F00001010000000000000000000000000000F6
:100900000000000000000000000000FFFF000000E9
:1009100000000000000000000000000000000000D7
:1009200000000000000000000000000000000000C7
:1009300000000000000000000000000000000000B7
:1009400000000000000000000000000000000000A7
:100950000000000000000000000000000000000097
:100960000000000000000000000000000000000087
:10097000000000000000D41111241FBECFEFDAE008
:10098000DEBFCDBF11E0A0E0B1E0E4EAF1E302C0D8
:1009900005900D92A234B107D9F725E0A2E4B1E0A9
:1009A00001C01D92A13DB207E1F714E0CCEBD4E009
:1009B00004C02197FE010E94CF16CB3BD107C9F797
:1009C0000E94F1110C94D0180C940000E9E7F1E0BA
:1009D000A0E0B8E000800EBC8111012C1197A0FDB1
:1009E000FDCF0192B9F70DB40895480F592F511D4D
:1009F0001416150684F5803891056CF597FF02C032
:100A000090E080E04138510514F040E850E0481B88
:100A1000FB01E770FF2721E001C0220FEA95EAF70A
:100A200077FF02C0695F7F4FFB0133E0F595E795E3
:100A30003A95E1F7F695FE2FEE27F795E795E80F43
:100A4000F91FE758FE4F415030F08191DF011197B7
:100A5000822B8C93F8CF08954F925F926F927F9282
:100A60008F929F92AF92BF92CF92DF92EF92FF92BE
:100A70000F931F93CF93DF9330E0F901E80FF91F35
:100A80001E161F060CF097C08038910509F493C01C
:100A9000FB01E00FF11D1E161F060CF08CC0603428
:100AA00071050CF088C0DB0177FF04C0AA27BB27C3
:100AB000A61BB70BA770BB27EB0177FD2796E3E0DA
:100AC000D595C795EA95E1F777FF07C0219768E0CC
:100AD00070E0FB01EA1BFB0BDF010695069506950E
:100AE000802E912C7A01BE017695762F6627779518
:100AF0006795680F791F67587E4F8E0148E050E078
:100B00003A016A1A7B0A0F3FFFEF1F070CF443C03C
:100B100050E040E05B01E0E8AE0EB11C4217530725
:100B20000CF039C0FC01E40FF51FE038F1059CF52D
:100B3000F7FD2EC00F3F100709F44EC0FA01EE0D6D
:100B4000FF1DE4916B01C40ED51EF0E02F010A2EAB
:100B500001C0440C0A94EAF7F6015080452840820F
:100B60001097B1F00730110599F0FA01EE0DFF1D55
:100B7000E4916501C40ED51EF0E02F01062C02C0E1
:100B8000559447940A94E2F7F60150804528408234
:100B90004F5F5F4FC3CF0F5F1F4FE20EF31E6058D2
:100BA0007F4FA8014C1B5D0B4815590524F40830F4
:100BB000110509F0A8CFDF91CF911F910F91FF9000
:100BC000EF90DF90CF90BF90AF909F908F907F90ED
:100BD0006F905F904F900895109739F6D9CFFC0130
:100BE00080917801882311F13FB7F89482E08093D7
:100BF000E9002091F200822F90E01816190614F4F3
:100C000081E090E0882339F0289844E6409377010A
:100C10004091F1004083222339F02091F20021110C
:100C200003C02BE62093E8003FBF08958FEF9FEFAE
:100C300008952FB7F89483E08093E9009091E8003D
:100C4000892F807295FF04C09091F20080E4891B87
:100C50002FBF089580916F0181110DC082E08093B4
:100C60006B0184E080936C0110926E0110926D0113
:100C700081E080936F018BE691E00895CF93DF933D
:100C80001F92CDB7DEB76983DC01ED91FC91028044
:100C9000F381E02D41E050E0BE016F5F7F4F099589
:100CA0000F90DF91CF91089583E08093E9008091C8
:100CB000F200882319F08AE38093E80008950E94E7
:100CC000190690E00895CF93DF931F92CDB7DEB75A
:100CD000FC018485958597FD08C02FEF3FEF358790
:100CE00024870F90DF91CF910895CE0101960E9445
:100CF000EF05019719F4898190E0F3CF8FEF9FEF13
:100D0000F0CF0F931F93CF93DF931F92CDB7DEB732
:100D10008C01FC018485958597FF0BC0CE0101965F
:100D20000E94EF05019771F4898190E0F8019587A1
:100D30008487F801848595850F90DF91CF911F916D
:100D40000F9108958FEF9FEFF1CFFC01848595857A
:100D500097FD0BC09FB7F89482E08093E9008091E3
:100D6000F2009FBF90E0019608959FB7F89482E04B
:100D70008093E9008091F2009FBF90E00895409138
:100D80006501509166012091630130916401421721
:100D90005307B4F49091E8009570E1F39091E80066
:100DA00092FD19C08093F1008091650190916601D8
:100DB00001968F739927892B19F48EEF8093E800A1
:100DC00080916501909166010196909366018093F0
:100DD000650181E0089580E00895DF92EF92FF922F
:100DE0000F931F93CF93DF93D82E8A01EB017B01E2
:100DF000E40EF51ECE15DF0559F0D7FE12C0FE0138
:100E000084910E94BF0621968111F4CF0FEF1FEF4E
:100E1000C801DF91CF911F910F91FF90EF90DF906C
:100E200008958881EECF0F931F93CF93DF931F9286
:100E3000CDB7DEB782E0898342E450E069E676E030
:100E400080E80E94ED060E942A06DC0112960D91B0
:100E50001C910115110589F0D801ED91FC910280DA
:100E6000F381E02DBE016F5F7F4FC801099597FDAB
:100E700004C0F80100851185ECCF89810F90DF91C6
:100E8000CF911F910F910895615030F02091F100A2
:100E9000FC0120830196F8CF289884E6809377019F
:100EA0000895FC01248135816217730720F4808145
:100EB0009181009729F410924A018AE491E0089503
:100EC000860F971F0895AF92BF92CF92DF92EF9255
:100ED000FF920F931F93CF93DF936C017B018B01E4
:100EE000040F151FEB015E01AE18BF08C017D10734
:100EF00059F06991D601ED91FC910190F081E02DBE
:100F0000C6010995892B79F7C501DF91CF911F9112
:100F10000F91FF90EF90DF90CF90BF90AF9008952A
:100F2000FC01448155816081718189EC95E00C94CC
:100F300063072D9A08958FB18095807F669B8860A6
:100F40001C9B8460089520E191E061FD94E060FDC8
:100F5000990F62FD9295687F269FD0011124A80FFA
:100F6000A758BE4F8C9140FF03C0892B8C930895E6
:100F700090958923FBCFEF92FF920F931F93CF930E
:100F8000DF937C018B01040F111DEB0177FF02C081
:100F9000D0E0C0E0C8010134110514F080E490E015
:100FA000C817D9075CF480E8E816F10428F441E09A
:100FB000BE01C7010E94A3072196ECCFDF91CF911C
:100FC0001F910F91FF90EF900895EF92FF920F9372
:100FD0001F93CF93DF937C018B01C42FD22F6034FA
:100FE000710510F40E94F504B8016D0F711D615078
:100FF00071096034710520F44C2FC7010E94F5047B
:101000004D2FB801C7010E94BB07C7018C0F911D6E
:101010004D2FB8010197DF91CF911F910F91FF9054
:10102000EF900C94BB0780E0E9E7F1E081118FEFCE
:10103000002481938193819381930394D1F710923B
:101040004C0110924B0110924E0110924D010895E7
:101050002F923F924F925F926F927F928F929F92C8
:10106000AF92BF92CF92DF92EF92FF920F931F93B6
:10107000CF93DF9300D000D01F92CDB7DEB76D3095
:10108000C9F04090000160904B0170904C01042D1C
:1010900010E06A3049F510924E0110924D0183E044
:1010A000000F111F8A95E1F7600E711E70924C01BE
:1010B00060924B0181E090E00F900F900F900F90A5
:1010C0000F90DF91CF911F910F91FF90EF90DF90E4
:1010D000CF90BF90AF909F908F907F906F905F90D8
:1010E0004F903F902F90089520904D0130904E01E9
:1010F000E5E06E9FC001112484559F4F9D838C8332
:101100006101512CF5E05F1651F18C819D810196B2
:10111000EC81FD81F491F9839D838C83430128E068
:101120002A83898181708B8376018E2D8C19841599
:10113000E0F4B12CA12CA414A0F490E8E916F10479
:1011400050F4B4016A0D7B1D6034710520F44B81AD
:10115000C7010E94A307EFEFAE1ABE0AECCF1982B7
:10116000DDCFFFEFEF1AFF0AE0CF29812695298313
:101170008A8181508A83800E911E8111D2CF53942F
:10118000C00ED11E96E05912BDCFC101459C800D05
:10119000911D112490934E0180934D018BCF90911E
:1011A0004901982329F490914801982381E009F49A
:1011B00080E0089580914801809349010E949B0737
:1011C00080934801089580E00C94E6040F93FB019E
:1011D000319725E0EE0FFF1F2A95E1F79695982F9E
:1011E00088279795879563E070E00E94A716CB014A
:1011F00020E24AE2BF010E94E50700E42AE245E25C
:1012000058E070E060E090E080E00E942C052AE267
:1012100045ED56E070E060E08AE290E00E942C0527
:101220000F910C94E3083FB7F8948091440190919A
:101230004501A0914601B091470126B5A89B05C084
:101240002F3F19F00196A11DB11D3FBFBA2FA92F45
:10125000982F8827BC01CD01620F711D811D911D42
:1012600042E0660F771F881F991F4A95D1F70895AE
:101270008F929F92AF92BF92CF92DF92EF92FF92A6
:101280006B017C010E9413094B015C01C114D10464
:10129000E104F104B9F00E941309681979098A0977
:1012A0009B09683E73408105910580F321E0C21AD5
:1012B000D108E108F10888EE880E83E0981EA11C91
:1012C000B11CE4CFFF90EF90DF90CF90BF90AF9034
:1012D0009F908F9008958F929F92AF92BF92CF92DE
:1012E000DF92EF92FF920F931F93CF93DF936C01E6
:1012F0007B018A0180910D01882309F45CC08091F3
:101300007801882309F457C080916A0180FF05C0E5
:101310008091E00082608093E000E801B12C8AEFC8
:10132000A82E93E0892E2AE3922E209711F4BB2059
:10133000D9F10E94190681110AC0AA94AA20D9F1F4
:1013400061E070E080E090E00E943809EECF8C17F9
:101350001D0611F00CF08C2F9FB7F8948092E900D5
:101360002091E80025FD02C09FBFDFCF282F30E08D
:10137000C21BD30BF701815020F041914093F10043
:10138000FACFE20EF31EBB2021F09092E800B12CC0
:10139000EBCF8091E80085FDE7CF9092E800BB2479
:1013A000B394209709F3F3CF5D9884E680936901A5
:1013B000101611063CF081E090E0F60193838283E1
:1013C00010E000E0C801DF91CF911F910F91FF90D5
:1013D000EF90DF90CF90BF90AF909F908F90089547
:1013E000BC0190E080E00C943809089590E080E022
:1013F00008950C94F7159F92AF92BF92CF92DF920F
:10140000EF92FF920F931F93CF93DF935C017B01C9
:101410008B01D0E0C0E0F80191908F016501CC0E06
:10142000DD1EC6010E94F715981621F0692DC60130
:101430000E94FF152196C430D10569F7C701DF91DD
:10144000CF911F910F91FF90EF90DF90CF90BF90C1
:10145000AF909F90089567E571E080E092E00E9470
:10146000FB096BE571E084E092E00C94FB090F93BB
:101470001F93CF93DF93EC0188819981009759F0F6
:101480002A813B812617370730F081E0DF91CF9129
:101490001F910F9108958B016F5F7F4F0E94FA1784
:1014A000009759F0998388831B830A832C813D819F
:1014B000232B59F7FC011082E8CF80E0E7CFCF93D0
:1014C000DF93EC0188819981009711F00E947117D8
:1014D000198218821D821C821B821A82DF91CF9191
:1014E0000895EF92FF920F931F93CF93DF93EC0138
:1014F000FB01E080F180E114F10411F10481158118
:1015000001151105A9F08C819D81080F191FB801E3
:10151000CE010E94370A882399F0288139818C8175
:101520009D81B701820F931F0E94C9181D830C83F0
:10153000CE01DF91CF911F910F91FF90EF90089511
:10154000CE010E945F0AF4CFEF92FF920F931F9398
:10155000CF93DF93EC017B018A01BA010E94370A25
:1015600081110BC0CE010E945F0ACE01DF91CF91A5
:101570001F910F91FF90EF9008951D830C83B70189
:10158000888199810E94C918F0CFFB010190002049
:10159000E9F73197AF01461B570B0C94A40A0F9340
:1015A0001F93CF93DF93CDB7DEB7A2970FB6F89412
:1015B000DEBF0FBECDBF8C01CB01BA01F801118295
:1015C000108213821282158214822AE0AE014F5FCC
:1015D0005F4F0E948715BE016F5F7F4FC8010E9459
:1015E000C50AA2960FB6F894DEBF0FBECDBFDF913D
:1015F000CF911F910F910895AF92BF92CF92DF923A
:10160000EF92FF920F931F93CF93DF93EC015B0157
:101610006A0179012417350720F48D2D6901E42E24
:10162000F82E198218821B821A821D821C8250E0B9
:1016300040E06EE371E0CE010E94A40AD501149649
:101640000D911C91C016D106E8F4E016F10608F4DD
:101650008701D501ED91FC911197E00FF11FF0800A
:1016600010826D917C916C0D7D1DCE01611571050F
:10167000A9F00E94C50AF50180819181080F191F08
:10168000D801FC92CE01DF91CF911F910F91FF9075
:10169000EF90DF90CF90BF90AF9008950E945F0AC7
:1016A000EACFCF93DF93EC01FB018617970749F050
:1016B000608171816115710541F0448155810E94FD
:1016C000A40ACE01DF91CF9108950E945F0AF9CF5D
:1016D000FC0180819181009711F00C94711708959D
:1016E000FF920F931F93CF93DF9300D000D000D0D1
:1016F000CDB7DEB740915B0150915C0160915D0117
:1017000070915E01CE0101960E94CF0A03E010E0C5
:1017100010934E0100934D0110934C0100934B0127
:1017200082E0F82EF0920001CE0101960E9490070F
:101730000E94E308CE0101960E94680B4091570178
:10174000509158016091590170915A01CE01019652
:101750000E94CF0A80E490E090934E0180934D0167
:1017600010934C0100934B01F0920001CE010196C1
:101770000E9490070E94E308CE0101960E94680B28
:1017800026960FB6F894DEBF0FBECDBFDF91CF9186
:101790001F910F91FF9008952F923F924F925F9269
:1017A0006F927F928F929F92AF92BF92CF92DF9271
:1017B000EF92FF920F931F93CF93DF93CDB7DEB7D6
:1017C000AA970FB6F894DEBF0FBECDBF1C010E94D2
:1017D000130870E060E090E080E00E94E608F12CE1
:1017E000E12CD12CC12C0E94DA0880E40E94CF08A1
:1017F000882359F086010F5F1F4F0330110579F4DC
:1018000010E000E00CC06801EECF80E20E94CF083B
:101810008601882321F00150110908F400C180E8F5
:101820000E94CF08882309F4FDC091E080E0EA948B
:10183000EF2809F490E0E92EF82EC016D10631F019
:101840000E941308B701C8010E94E60888E00E94C0
:10185000CF08811105C084E00E94CF08882399F247
:101860000115110509F00BC21EA21DA218A61FA288
:101870001AA619A650E040E06EE371E0CE0185960D
:101880000E94A40A1C8A1B8A1E8A1D8A188E1F8A1F
:101890004AE0BE016F5F7F4F90E080E00E947C15C0
:1018A000BE016F5F7F4FCE0143960E94C50A1A8228
:1018B00019821C821B821E821D8241E050E06DE372
:1018C00071E0CE0101960E94A40ABE016D5E7F4FB9
:1018D000CE0101960E94710A18A21F8E1AA219A2A7
:1018E0001CA21BA2BC01CE014F960E94510BCE013F
:1018F00001960E94680BCE0143960E94680B0E94DD
:1019000013081A8219821C821B821E821D82BE014C
:10191000615E7F4FCE0101960E94510B30E6E32EAF
:10192000F12CF0924E01E0924D0100E210E0109394
:101930004C0100934B0182E080930001CE0101969F
:101940000E9490070E94E308CE0101960E94680B56
:10195000F0924E01E0924D0110934C0100934B0127
:1019600024E14EE06DE170E08AE690E00E94E50738
:101970000E94E308812C912C5401839450E6452E5B
:10198000512C612C712CBE01615E7F4FCE0185967A
:101990000E94510B0E94DA0888E00E94CF08811152
:1019A00006C084E00E94CF08882309F44EC0F101EC
:1019B000C080D180E280F3808F8D98A1009709F4D8
:1019C00040C00E945515C60ED71EE81EF91EF10133
:1019D000C082D182E282F3820E942B0ACE014F960E
:1019E0000E94680BCE0185960E94680BAA960FB6DE
:1019F000F894DEBF0FBECDBFDF91CF911F910F9145
:101A0000FF90EF90DF90CF90BF90AF909F908F901E
:101A10007F906F905F904F903F902F90089502E0DD
:101A200010E0FDCE80E10E94CF08882309F405CFA5
:101A3000F1E0EF1AF10808F000CFEE24E394F12C66
:101A4000FCCE60E070E0CB01BECF80E20E94CF0808
:101A5000882309F4D6C081149104A104B10429F4A7
:101A60002BA13CA12930310558F175016401F1E049
:101A7000CF1AD108E108F108C114D104E104F1043E
:101A800009F475C080E80E94CF088111D4C080E1BC
:101A90000E94CF08882309F48CC0B601CE014F966E
:101AA0000E945107FC018081B601803309F0DCC03F
:101AB000CE014F960E94510729E3FC01208379C093
:101AC00041E050E0BE01615E7F4FCE0101960E9471
:101AD000FC0A21E030E050E040E0BE01615E7F4F53
:101AE000CE0149960E94FC0A1C8A1B8A1E8A1D8A06
:101AF000188E1F8ABE01675E7F4FCE0143960E94FB
:101B0000510BEF88F88C2FEFE21AF20AB701CE01E1
:101B100043960E94370A882309F46EC02B893C89BA
:101B20008F89988D6FE371E0820F931F0E94C9180F
:101B3000F88EEF8ABE016F5F7F4FCE0143960E9401
:101B4000710ABC01CE014F960E94510BCE01439603
:101B50000E94680BCE0149960E94680BCE01019647
:101B60000E94680B8CE0481A51086108710880E8EF
:101B70000E94CF08811106C080E10E94CF0888230F
:101B800009F44DC070E060E0CE014F960E9451070D
:101B9000FC0180818B3209F046C070E060E0CE012C
:101BA0004F960E9451072DE2FC012083C12CD12CBD
:101BB00076010BA11CA1980150E040E0C701B601DD
:101BC0000E940D166B017C0189A59AA508171907BB
:101BD00009F087C08F8D98A16DA17EA1009709F4AF
:101BE0006DC06115710509F047C0012B09F473C080
:101BF000FC01808190E06DC0CE0143960E945F0A97
:101C000099CF80E40E94CF0875016401882309F40C
:101C100033CF9FEFC91AD90AE90AF90A2DCFC12C8F
:101C2000D12C76012FCF70E060E0CE014F960E945C
:101C300051072BE2B9CFB601CE014F960E94510752
:101C4000FC018081082E000C990B8F976AE070E0F0
:101C50000E94A71610E3180FB601CE014F960E94FE
:101C60005107FC011083A5CFCE014F960E9451076A
:101C7000FC0110811150F0CF0E94C0182AC0F10160
:101C800060817181828193810130110559F4660F61
:101C9000771F881F991F60837183828393830E94BB
:101CA0002B0AA4CE22E030E040E050E00E940D1666
:101CB000F1012083318342835383F1CF6115710594
:101CC00051F0012B41F0FB01808190E091958195CD
:101CD0009109892B31F48C149D04AE04BF0409F4DE
:101CE00042C00E9413081A8219821C821B821E8223
:101CF0001D82BE01615E7F4FCE0101960E94510B95
:101D000050924E0140924D0180E290E090934C0140
:101D100080934B0192E090930001CE0101960E94C6
:101D200090070E94E308CE0101960E94680B509232
:101D30004E0140924D01E0E2F0E0F0934C01E0935F
:101D40004B01FCE0FC9DC001FD9D900D112424E1A0
:101D50004EE06DE170E0F20132978E0F9F1F0E94FE
:101D6000E5070E94E308460157010DCE1F920F922E
:101D70000FB60F9211248F939F938091E100909161
:101D8000E100937F9093E10083FF0FC01092E90080
:101D900091E09093EB001092EC0092E39093ED00B1
:101DA0001092780198E09093F00082FF22C093E0B7
:101DB0009093E9009091F200992319F09AE390939F
:101DC000E80090916901992341F090916901915047
:101DD00090936901911101C05D9A909177019923C7
:101DE00041F090917701915090937701911101C04A
:101DF000289A84FF18C08091E2008E7E81608093D3
:101E0000E2008091E1008F7E8093E10080916A0181
:101E10008E7E806180936A019F918F910F900FBE9B
:101E20000F901F90189580FFF7CF8091E2008E7E73
:101E300080618093E2008091E1008E7E8093E100DA
:101E400080916A018E7E8160E5CF1F920F920FB65E
:101E50000F921124CF92DF92EF92FF920F931F9374
:101E60002F933F934F935F936F937F938F939F93A2
:101E7000AF93BF93EF93FF93CF93DF93CDB7DEB7CD
:101E80006C97DEBFCDBF1092E9008091E80083FF20
:101E900025C068E0CE0145960E94440782EF8093FA
:101EA000E8008D8987FF39C09091E80090FFFCCF52
:101EB000982F907609F034C19E894F89588D2F89CB
:101EC000F88C911131C0803861F580916801809360
:101ED000F1001092F1008EEF8093E8006C960FB63F
:101EE000F894DEBF0FBECDBFDF91CF91FF91EF9190
:101EF000BF91AF919F918F917F916F915F914F9122
:101F00003F912F911F910F91FF90EF90DF90CF9015
:101F10000F900FBE0F901F9018959EEF9093E800C2
:101F2000C7CF1092F100D5CF913059F48111D3CFA2
:101F30004130510581F6809168018D7F8093680161
:101F4000CACF933049F48111C6CF4130510519F6FB
:101F5000809168018260F2CF953041F48091E80071
:101F600080FFFCCF20682093E300B5CF963009F0C6
:101F7000A9C00B8D1C8D22E01092E9001092660121
:101F800010926501F2122EC010926401109263014A
:101F90000E9413071F8299E09983FA8291E09E8341
:101FA00090EA98879AEF99872091650130916601B0
:101FB000275F3F4F3C832B838D831092E900109263
:101FC000660110926501109364010093630149E07A
:101FD00050E0BE016F5F7F4F80E00E94ED060E94DF
:101FE000130779CF10936401009363010E942A06BE
:101FF000DC0112960D911C910115110509F451C1D6
:10200000D801ED91FC910480F581E02DBE016B5E5D
:102010007F4FC8010995009709F03EC1F80100857E
:102020001185EACFF3E0FF120EC08F89882309F4EF
:1020300040C0823061F440E867E08DEC96E00E9499
:10204000A111811148CF81E28093EB0047CF81300D
:1020500029F440E86BE081EC96E0F1CF833099F70A
:102060000E942A06DC011296ED90FC908E010F5F13
:102070001F4F6801E114F10479F0D701ED91FC9153
:102080000680F781E02DB801C7010995080F111DE1
:10209000F701E084F184EECFD8011C92F6010190A3
:1020A0000020E9F73197BF016C197D0940E0C601B6
:1020B000C6CF6BEA76E0FB01449150E080E80E94D5
:1020C000ED0609CF973009F4BECF983021F481E0B6
:1020D0008093F10000CF993009F0FDCE837009F0B4
:1020E000B2CFE9E1F1E081E031E096E321912223F2
:1020F00071F08093E9003093EB00DF0111972C9190
:102100002093EC009093ED008F5F873079F78EE796
:102110008093EA001092EA008F8980937801DBCEE9
:102120008B8D9C8D1092E9001092660110926501D2
:102130009093640180936301898D811192C08E898F
:102140009D89913A49F4813209F07DCF47E050E012
:1021500066E071E080E0B3CF913209F074CF833252
:1021600069F48F89988DB0E0A0E08093020190938C
:102170000301A0930401B0930501ADCE803269F450
:102180008091E80082FFFCCF67E086E091E00E944A
:1021900044078BEF8093E8009ECE823209F09BCEFD
:1021A0008F8980930D01EEEFFFE7859194918B3F2E
:1021B0009C4D51F1E0E0F8E080910601909107011B
:1021C000A0910801B0910901803B9440A105B1059F
:1021D000F1F480910D0180FD1AC0EE3F8AE0F8070E
:1021E00089F587E797E791838083809160008093EA
:1021F000670188E19BE00FB6F894A8958093600092
:102200000FBE9093600067CEEEEFFAE0D5CF8081ED
:1022100091818737974709F05ECEA895809160003D
:102220008861809360008091670180936000EE3F39
:102230002AE0F20789F08091FE0A9091FF0A9183CB
:10224000808349CE808191818737980751F290939E
:10225000FF0A8093FE0AC5CF1092FF0A1092FE0A71
:102260003ACE0E942A06DC0112960D911C910115AE
:10227000110509F4E8CED801ED91FC910190F081AF
:10228000E02DBE016B5E7F4FC8010995811123CE01
:10229000F80100851185EBCF181619060CF41BCE3A
:1022A000D2CEF1E0FF12BECE6FEA76E004CF0F92FD
:1022B0000FB68F939F93EF93FF93809143018D5FB0
:1022C0008D3708F08D5780934301EFE4F1E0808172
:1022D0008E4F808391819F4F918382818F4F828324
:1022E00083818F4F8383E4E4F1E080818F5F80837B
:1022F00081818F4F818382818F4F828383818F4F32
:1023000083838FB18F6066991C9B88278F3681F4F9
:1023100080914201981B963068F0E0E0F8E087E792
:102320008083818388E180936000F0936000FFCF19
:1023300090934201FF91EF919F918F910FBE0F906B
:102340001895EF92FF920F931F93CF93DF93F82E80
:10235000192FE62E042F81E0860F880F0E94BF06FA
:1023600083E00E94BF06CF2DD12FEC0EFD2EF11C75
:10237000CE15DF05B9F007FF13C0FE0184910E945E
:10238000BF06182F80E00E94BF068123219681118D
:10239000EFCFDF91CF911F910F91FF90EF900895B4
:1023A0008881EDCF81E0F5CFE9E7F5E01382128275
:1023B00088EE93E0A0E0B0E084839583A683B783A2
:1023C00083E291E0918380838FEF9FEF95878487ED
:1023D000E9ECF5E01382128285E391E0918380833A
:1023E0000895789484B5826084BD84B5816084BD8D
:1023F00085B5826085BD85B5816085BD80916E00A3
:10240000816080936E0010928100809181008260D3
:102410008093810080918100816080938100809110
:102420008000816080938000809191008260809321
:102430009100809191008160809391008091900043
:102440008160809390008091C10084608093C1007E
:102450008091C10082608093C1008091C100816041
:102460008093C1008091C30081608093C3008091FC
:10247000C00082608093C0008091C2008160809320
:10248000C20080917A00846080937A0080917A0003
:10249000826080937A0080917A00816080937A00D4
:1024A00080917A00806880937A001092780110926F
:1024B000680110926A018091D70081608093D700F3
:1024C00080EA8093D80089B5806189BD89B5826032
:1024D00089BD09B400FEFDCF61E070E080E090E0CE
:1024E0000E9438098091D8008F7C80618093D80049
:1024F0008091E000807F8093E0008091E1008E7EFB
:102500008093E1008DE08093E200559A209A81EC5F
:1025100080937C0085B1806F85B984B1877E84B952
:1025200084B1876E84B95E9A5F988AB1806D8AB9EA
:10253000769A6E9881B3806F81BB899880B38D70D5
:1025400080BB80E58CBD81E08DBD85E090E00E9480
:10255000F0095F9A85E090E00E94F0095E985C982F
:10256000ECE5F6E089E696E024912EBD00000DB47E
:1025700007FEFDCF31968E179F07B1F75C9A81E871
:1025800080936400809165008160809365000E9463
:10259000E3080E949B0787FF15C05C9885EA8EBD03
:1025A00000000DB407FEFDCF5C9A2E982F982D9851
:1025B0008091640080628093640081E083BF88958D
:1025C00013BEFCCF0E949B0782FF48C02D980E943B
:1025D0009B0784788438E1F40E94990788EC90E0A6
:1025E0000E94F0092F9882E090E00E94F7158F3F3B
:1025F00029F06FEF82E090E00E94FF1584EF91E0F8
:102600000E94F0092F9A0E949B0784788438D9F39E
:102610000E949B0784718431E1F40E94990788EC41
:1026200090E00E94F0092E9882E090E00E94F71559
:10263000882329F060E082E090E00E94FF1584EF9B
:1026400091E00E94F0092E9A0E949B0784718431C8
:10265000D9F388EC90E00E94F009B4CF0E9499076A
:1026600082E090E00E94F909882309F4A2C03E9A12
:102670003F9A81E090E00E94F909182F147081FFC1
:102680000CC011112E98C1EFDFEF0E949B0786FF4F
:1026900093C02E9A2F9A0E94990782E390E00E949D
:1026A000F0090E949B078111F8CF0E94130880E176
:1026B00080930101809164008E7F809364008091FB
:1026C0007A00806480937A0080917A0086FDFCCF46
:1026D000C0917800D09179000E941309AB01BC0130
:1026E000CE01B0E0A0E0DC01992788278C019D0194
:1026F000040F151F261F371FC901B8012091640060
:10270000216020936400611571058105910511F028
:102710000E944C1580E092E00E94F71580935701CB
:1027200081E092E00E94F7158093580182E092E0E8
:102730000E94F7158093590183E092E00E94F715FB
:1027400080935A0184E092E00E94F71580935B0128
:1027500085E092E00E94F71580935C0186E092E0AC
:102760000E94F71580935D0187E092E00E94F715C3
:1027700080935E010E94700B0E94E30811E0C0E0AC
:10278000D0E001E08FB7F89440914F015091500193
:1027900060915101709152018FBF80915501882342
:1027A00009F462C010925501209761F30E94000065
:1027B000E9CF3E983F985DCF112329F0C430D10571
:1027C00011F42E9A2F9881E00E94E60400E128E59A
:1027D0004CEA55E0BE0184E190E00E942C050E9485
:1027E000E3088FE090E00E94F0092196C931D105FD
:1027F00009F04BCF112311F02F9A2D9880E991E029
:102800000E94F0090E94990781E090E00E94F90976
:1028100080FF43CF8AE090E00E94F9099FEF980F74
:102820009E3F08F03ACF22E330E030934E012093F0
:102830004D0128E330E030934C0120934B01CBE075
:10284000D0E0682F89EC95E00E942808CE010E9414
:10285000F9092196C131D105A1F70E94E30888EE5C
:1028600093E00E94F00919CF80915601242F281B74
:10287000822F90910101291740F48F5F891708F08A
:1028800093CF13BF889513BE8FCF0093550140930C
:1028900056018091530190915401019690935401F7
:1028A000809353010E94DA080E949B07807F803F3B
:1028B00099F480915F0190916001A0916101B091C4
:1028C00062010196A11DB11D80935F01909360018B
:1028D000A0936101B093620180915F0190916001CA
:1028E000A0916101B0916201CD97A105B10504F1FC
:1028F00010925701109258011092590110925A01EA
:1029000010925B0110925C0110925D0110925E01C9
:102910000E942B0A10925F011092600110926101D7
:10292000109262010E9413080E94700B0E94E3083B
:1029300088E00E94CF08882359F08BE591E00E943F
:10294000CC0B0E9413080E94700B0E94E3082CCF4E
:1029500084E00E94CF08882309F426CF87E591E020
:10296000EECF8F929F92AF92BF92CF92DF92EF9273
:10297000FF92CF93DF93EC01688179818A819B81FB
:10298000611571058105910521F464E279ED8BE50E
:1029900097E02DE133EF41E050E00E940D16490130
:1029A0005A019B01AC01A7EAB1E40E942C166B010D
:1029B0007C01ACEEB4EFA50194010E943A16C60E5C
:1029C000D71EE81EF91EF7FE06C081E0C81AD1081E
:1029D000E10880E8F80AC882D982EA82FB82C7014E
:1029E000B6019F77DF91CF91FF90EF90DF90CF906E
:1029F000BF90AF909F908F9008958F929F92AF92CB
:102A0000BF92CF92DF92EF92FF9260910E01709190
:102A10000F018091100190911101611571058105DF
:102A2000910521F464E279ED8BE597E02DE133EF38
:102A300041E050E00E940D1649015A019B01AC0192
:102A4000A7EAB1E40E942C166B017C01ACEEB4EF56
:102A5000A50194010E943A16C60ED71EE81EF91E63
:102A6000F7FE06C081E0C81AD108E10880E8F80A3C
:102A7000C0920E01D0920F01E0921001F09211016C
:102A8000C701B6019F77FF90EF90DF90CF90BF9086
:102A9000AF909F908F90089560930E0170930F01F7
:102AA000809310019093110108951F93FC019927C1
:102AB0008827BC01E89411911032E9F3193010F025
:102AC0001E30C8F31B3251F01D3249F4689406C021
:102AD0000E949615610F711D811D911D119110535A
:102AE0001A30B0F33EF490958095709561957F4FC4
:102AF0008F4F9F4F1F910895BB274A3031F4992380
:102B000022F4BDE2909581959F4F0C94CE15BB2782
:102B10002A3051F4992342F4BDE290958095709546
:102B200061957F4F8F4F9F4F0C94AC15592F482FB5
:102B3000372F262F660F771F881F991F660F771F65
:102B4000881F991F620F731F841F951F660F771FC1
:102B5000881F991F0895BB27FA01A62F62177105D8
:102B600081059105330B30FB66F0AA27660F771FAE
:102B7000881F991FAA1FA21710F0A21B6395385037
:102B8000A9F7A05DAA3308F0A95DA19336F7B111AA
:102B9000B1931082CA010C94E715BB27FB0155279E
:102BA000AA27880F991FAA1FA41710F0A41B8395AA
:102BB0005051B9F7A05DAA3308F0A95DA193009721
:102BC00079F7B111B1931192CB010C94E715DC01A7
:102BD000FC01672F71917723E1F7329704C07C9154
:102BE0006D9370836291AE17BF07C8F30895F9998A
:102BF000FECF92BD81BDF89A992780B50895262F02
:102C0000F999FECF1FBA92BD81BD20BD0FB6F894D1
:102C1000FA9AF99A0FBE01960895052E97FB1EF4B5
:102C200000940E94241657FD07D00E94761607FCD8
:102C300003D04EF40C942416509540953095219570
:102C40003F4F4F4F5F4F08959095809570956195D8
:102C50007F4F8F4F9F4F08950E949816A59F900D0C
:102C6000B49F900DA49F800D911D11240895B7FF6E
:102C70000C942C160E942C16821B930B08952F92F5
:102C80003F924F925F926F927F928F929F92AF92FC
:102C9000BF92CF92DF92EF92FF920F931F93CF9349
:102CA000DF93CDB7DEB7CA1BDB0B0FB6F894DEBFE0
:102CB0000FBECDBF09942A88398848885F846E8406
:102CC0007D848C849B84AA84B984C884DF80EE8050
:102CD000FD800C811B81AA81B981CE0FD11D0FB659
:102CE000F894DEBF0FBECDBFED010895A1E21A2E0C
:102CF000AA1BBB1BFD010DC0AA1FBB1FEE1FFF1FA0
:102D0000A217B307E407F50720F0A21BB30BE40BEF
:102D1000F50B661F771F881F991F1A9469F7609536
:102D20007095809590959B01AC01BD01CF010895F0
:102D3000A29FB001B39FC001A39F700D811D1124FC
:102D4000911DB29F700D811D1124911D089597FB57
:102D5000072E16F4009407D077FD09D00E94BB1609
:102D600007FC05D03EF4909581959F4F089570958E
:102D700061957F4F0895AA1BBB1B51E107C0AA1F95
:102D8000BB1FA617B70710F0A61BB70B881F991F0C
:102D90005A95A9F780959095BC01CD010895EE0F45
:102DA000FF1F0590F491E02D09940F931F93CF938B
:102DB000DF938230910510F482E090E0E091CF053E
:102DC000F091D00530E020E0B0E0A0E0309799F439
:102DD0002115310509F44AC0281B390B243031056F
:102DE000D8F58A819B816115710589F1FB01938377
:102DF0008283FE0111C040815181028113814817F5
:102E00005907E0F04817590799F4109761F01296A6
:102E10000C93129713961C933296CF01DF91CF91AA
:102E20001F910F9108950093CF051093D005F4CF13
:102E30002115310551F04217530738F0A901DB0184
:102E40009A01BD01DF01F801C1CFEF01F9CF9093E5
:102E5000D0058093CF05CDCFFE01E20FF31F819304
:102E600091932250310939832883D7CF2091CD0502
:102E70003091CE05232B41F420911401309115019E
:102E80003093CE052093CD0520911201309113018E
:102E90002115310541F42DB73EB7409116015091EF
:102EA0001701241B350BE091CD05F091CE05E217FB
:102EB000F307A0F42E1B3F0B2817390778F0AC015D
:102EC0004E5F5F4F2417350748F04E0F5F1F50933A
:102ED000CE054093CD05819391939FCFF0E0E0E044
:102EE0009CCFCF93DF930097E9F0FC0132971382D8
:102EF0001282A091CF05B091D005ED0130E020E025
:102F00001097A1F420813181820F931F2091CD056C
:102F10003091CE052817390709F061C0F093CE052E
:102F2000E093CD05DF91CF910895EA01CE17DF0739
:102F3000E8F54A815B819E0141155105B1F7E90130
:102F4000FB83EA8349915991C40FD51FEC17FD0704
:102F500061F4808191810296840F951FE901998324
:102F60008883828193819B838A83F0E0E0E01296DC
:102F70008D919C9113970097B9F52D913C911197E4
:102F8000CD010296820F931F2091CD053091CE0581
:102F90002817390739F6309751F51092D00510925D
:102FA000CF05B093CE05A093CD05BCCFD383C2830C
:102FB00040815181840F951FC817D90761F44E5F76
:102FC0005F4F88819981480F591F518340838A81BF
:102FD0009B81938382832115310509F0B0CFF09353
:102FE000D005E093CF059ECFFD01DC01C0CF138259
:102FF0001282D7CFB0E0A0E0E0E0F8E10C944116F7
:103000008C01009751F4CB010E94D5168C01C801A8
:10301000CDB7DEB7E0E10C945D16FC01E60FF71FBB
:103020009C0122503109E217F30708F49DC0D90131
:10303000CD91DC911197C617D70798F0C530D1050F
:1030400030F3CE0104978617970708F3C61BD70BFA
:103050002297C193D1936D937C93CF010E947117F6
:10306000D6CF5B01AC1ABD0A4C018C0E9D1EA091FF
:10307000CF05B091D005512C412CF12CE12C1097AB
:1030800031F58091CD059091CE058815990509F00F
:103090005CC04616570608F058C080911201909106
:1030A0001301009741F48DB79EB7409116015091DE
:1030B0001701841B950BE817F90708F055C0F0932A
:1030C000CE05E093CD05F90171836083A0CF8D918A
:1030D0009C91119712966C90129713967C9013976F
:1030E000A815B90559F56C0142E0C40ED11CCA14EB
:1030F000DB0420F1AC014A195B09DA01129615973D
:1031000080F06282738251834083D9016D937C93F6
:10311000E114F10471F0D7011396FC93EE9312972A
:1031200076CF22968C0F9D1FF90191838083F30146
:10313000EFCFF093D005E093CF0569CF481659063D
:1031400008F42C017D01D3019ACFCB010E94D51642
:103150007C01009749F0AE01B8010E94B718C80180
:103160000E947117870153CF10E000E050CFFB01A0
:10317000DC0102C001900D9241505040D8F70895F3
:10318000FB01DC018D91019080190110D9F3990B9D
:103190000895FB01DC0101900D920020E1F70895F4
:0431A000F894FFCFD1
:1031A4000110FFFFFFFF00E100000000000001002C
:1031B40000000000D105800000C1808100000000F3
:1031C4000000003E066B095F065406A506630681EF
:1031D400060000000028086307F609F5092B0030F3
:0231E4000000E9
:00000001FF
